:020000040000fa
:080000000002040000000000f2
:020000040000fa
:04000c00520300009b
:020000040000fa
:040010006203000087
:020000040000fa
:040014007203000073
:020000040000fa
:04001800820300005f
:020000040000fa
:04003400e6020000e0
:020000040000fa
:04004800d2030000df
:020000040000fa
:04005c00c8020000d6
:020000040000fa
:04020c009203000059
:020000040000fa
:04021000a203000045
:020000040000fa
:04021400b203000031
:020000040000fa
:04021800c20300001d
:020000040000fa
:100400004f8820000e7f22000e01880000000000af
:10041000000020000000e000020032000001200087
:1004200020028800140007002c0107000000e000f3
:1004300003003a00c01c2200010020000200370027
:100440000000200001002000810f70000100320038
:1004500014000700000020000000e000020032004d
:10046000000002000000000036180200000000003a
:100470000040da000000fe004440a90040002000d7
:100480000000e0000300320000002000a00188000e
:100490004440a800000006008a1f78008b1f7800e7
:1004a0000000060091018800800478000000eb0045
:1004b0001a003700e284440032a0b4009905ba0063
:1004c000e284440032a0b4009906ba00e2844400f9
:1004d00032a0b4000006eb00476fde00fd07b2005b
:1004e000636ce10003003a00ebff07000000eb0043
:1004f0000a003700606ce10004003a00005deb0088
:100500008b05e900fdff3e00040037006168e10053
:10051000010032000086eb000b00070019c7ba008b
:100520001905ba000e04e00003003a000a00e000da
:10053000e0ff3a0000000600fe07b2009e018800be
:100540008a047800f5ff3700395dba008b05e900b1
:100550000c003200295dba008b05e900080032006a
:100560000c00e00003003a00e284440032a0b40032
:10057000f5ff370019ddba008b05e900faff3a00f4
:100580008904e800e184440032a0b40000000600c1
:10059000809fbe003400f80000002000a001880009
:1005a0000000fa00001880008040880020812000b0
:1005b00011c0b3000148780085a0a9000080fa00ae
:1005c0003400f9004f00be0000400600809fbe00ce
:1005d0003400f80000002000a00188000000fa00ac
:1005e0006080200090407800a0c3b30080cf50000e
:1005f00006003e0060802000104078008040e80047
:1006000060802000014878001e00370060802000d4
:100610008040eb0001487800508020009040780036
:10062000a0c3b30080cf500006003e0050802000e1
:10063000104078008040e800508020000148780099
:1006400010003700508020008040eb000148780007
:100650004080200010407800f64f500006003e0019
:1006600040802000104078008040e800408020005a
:100670000148780003003700408020008040eb00f4
:1006800001487800a080200011c0b3000148780024
:100690008460a9000080fa003400f9004f00be0019
:1006a000004006003400f800881f78000800200091
:1006b000a80188004f0478000000fa008020a900fb
:1006c000ffff37003400f800881f78000800200082
:1006d000a80188004f0478000000fa008060a9009b
:1006e000ffff37003400f800881f78000800200062
:1006f000a80188004f0478000000fa008040a9009b
:10070000ffff37003400f800881f78000800200041
:10071000a80188004f0478000000fa008080a9003a
:10072000ffff37003400f800881f78000800200021
:10073000a80188004f0478000000fa008020a9007a
:10074000ffff37003400f800881f78000800200001
:10075000a80188004f0478000000fa008060a9001a
:10076000ffff37003400f800881f780008002000e1
:10077000a80188004f0478000000fa008040a9001a
:10078000ffff37003400f800881f780008002000c1
:10079000a80188004f0478000000fa008080a900ba
:1007a000ffff37003600f800809fbe00829fbe002a
:1007b000849fbe00869fbe003400f8000000200029
:1007c000a00188000200fa000040eb00004f780012
:1007d000360037001e80fb006a00b90080007800f8
:1007e0008087200000804000100078000000e000ba
:1007f0002d0032001e81fb006a10b9000000780055
:10080000e600400080872000008040001000be000d
:1008100061004000e08048006a11b9008201780060
:10082000e2872000028141000089be001e80fb009b
:100830006a00b90000007800e600400080872000d0
:10084000008040001001be001e80fb006a00b9005d
:10085000000078008080e800808720000080400051
:100860001000be00800f5100818f59000e003a0029
:100870001e80fb006a00b90080007800808720009d
:100880000080400010007800000001001e80fb0086
:100890006a00b90080007800e087200000814000f5
:1008a0006000b8000089be001e4fe8001e407800be
:1008b0000004e000c7ff32008500a9000080fa00b4
:1008c0003400f9004f03be004f02be004f01be00ce
:1008d0004f00be003600f900004006000000050091
:1008e0000001be00220007000470a70003f0a10071
:1008f0006509b100160032000d0035006828e100de
:1009000006003500f0ff2f00f1ff27000300e00094
:1009100013003b000100280000000500000040001b
:10092000818048008502e900fcff3a00080037009a
:10093000f88f420002003c008000eb000000050040
:100940008100d1000080d3008502e800fcff3a005e
:100950000300e00002003b0060001000e08018008f
:10096000000006004f89de00820178000502370092
:10097000c70ade00f107b200f50fb200080032002e
:10098000e1cf4200020032000170a0002400050007
:10099000810f7000010032000408050044000500ca
:1009a000810f700002003a00140005008502e90082
:1009b0000000400081c04800fcff3b000170a00027
:1009c0002400050007f82700078361000638e100ce
:1009d00004003a00f7072000878361008703710055
:1009e00001003a0003f0a200889fbe008a9fbe006b
:1009f0008c9fbe00470ade000480a100c71ade00fb
:100a00000580a10007002800078560008785610038
:100a1000f70f20000720e1009e0032000728e100c8
:100a20009c003200010678000400e000b4003200af
:100a3000f7072000878060000170a0000500e0003b
:100a4000c0003200f7072000878161000370a0001a
:100a5000050652000f003a000b50e1000b00320077
:100a60000308e10002003a000200e1007e003200cb
:100a70000204500083845800040031000001fd008e
:100a80008101fd008402fd008a05fd006044b8007c
:100a9000210037000520e10005003d000001fd00b8
:100aa0008101fd008402fd008a05fd00050652005b
:100ab0007a60e100050035000170a1004722dd00e9
:100ac000848070008a807000630037006044b80042
:100ad000ef02660007ff2f00070666000500e00032
:100ae00006003400f08312008714dd000511de00db
:100af000071bdd00060171008519de007060e10052
:100b000005003500090478008204780003017800ac
:100b10008001eb00700656000b50e10003003a0024
:100b20000200400083804800040037006004140085
:100b3000e0841c0002005800838058000188a30054
:100b4000060032008100d1000080d3008984d300e8
:100b50000884d3000402e800270037000178a300ce
:100b600025003a000100e000030032008186cf003a
:100b7000698656000a0037008c0020000000e00063
:100b800004003a0009007800880478000004eb00b3
:100b9000700252008086cf000d0646000c06e90068
:100ba0007060e100060035008000780009007800e0
:100bb000880478000004eb007006560070025200b2
:100bc0000c00e0000c0034008c08dd00f00316007f
:100bd0000703de00868070000c00dd00074bde009e
:100be000060070008c4cdd000743de008684740034
:100bf0000c44dd000c0252006120e10020003500b1
:100c0000610160000700280087816400f7ff27006a
:100c100087836400070374000300e00006003200cd
:100c200082037300040032000000e800e080480006
:100c30000188a3000e003a00f70f20000720e10012
:100c40004a003d000170a1004722dd0081007200d2
:100c50008a8070000000be004f06be004f05be0037
:100c60004f04be00000006006000b800faff370025
:100c70008100d1000080d3000402e800eeff3700bd
:100c80000401780089017400c20007008a807000a6
:100c9000f1ff370018010700070278000001fd008e
:100ca0008101fd00140107008702780085037200ae
:100cb0000778a300040032000001fd008101fd005f
:100cc00027010700e4ff3700850362000768a300df
:100cd000080032000b50e10003003200f0ff2f004b
:100ce000f1ff2700dcff37000001fd008101fd005e
:100cf000d9ff37000468a300d7ff3200faff37009e
:100d0000f8ff2700888360000b003a000000e00035
:100d100009003a00830364008283730002003200fa
:100d20000200be00ccff37000b50e100ceff3a00be
:100d30000200be00c8ff37001400200081006400dc
:100d40003eff3700f8ff27008883610004003a0067
:100d50000200e00002003a008c007800beff37007d
:100d6000150020008301640039ff370001f82700d7
:100d70000000200081007500b7ff37000383680082
:100d80000700280007036300470ade000480a10073
:100d9000c71ade000580a100f70f20000720e10040
:100da000420032000728e10040003200889fbe0068
:100db0008a9fbe008c1f7800f107b200f307b200d3
:100dc0000400e000640032000170a0000500e000b3
:100dd000680032000370a00085054200eb07b100f7
:100de0000204b8000302b8008484440060854a000d
:100df000020ab800848444000a854a00030ab80045
:100e000004054500040033000804d0008984d200a2
:100e10000a85d2008b05e9006158e1003d003500ec
:100e2000021020000901610003082000898161008f
:100e3000f70720008783640008867300c84cde0033
:100e4000c853dd00878474004855de000300e000cd
:100e50000600320082037600040032008904e800b4
:100e600060054d000a88a3000c003a00f70f20002f
:100e70000758e10044003d000a70a100c75ddd0095
:100e80000a8575008a007300090078004f06780013
:100e90004f05be004f04be00000006000a05d10049
:100ea0008984d3008b05e800f0ff3700881f7800a5
:100eb0000604780090000700070278000001fd009a
:100ec0008101fd008c000700870278008503720015
:100ed0000778a300050032000001fd008101fd003c
:100ee0009f0007004f047800000006008503720091
:100ef0000748a30003003200f0ff2f00f1ff270096
:100f0000f8ff37000000200001f8270088807000fb
:100f1000f4ff3700880178004848dd0080817100c7
:100f20004848de00c850dd0001007000c850de00f7
:100f3000060478000b017800160007008880700016
:100f4000d2ff37000500e000050032001700200046
:100f50003a0007009dff370081037000f9ff3a0057
:100f6000860078004f0678004f05be004f04be0093
:100f70000000050083037100f9ff32002700200004
:100f80002e00070094ff370001f8270086807000cc
:100f9000f4ff37000100e00026003200610111007b
:100fa0007810e10023003c006022b8007010e100de
:100fb0000400350080027800010078008000eb001a
:100fc000700151000200e0000900340070031100bc
:100fd000062add00822ade008603dd008782720099
:100fe0000200de00860bdd00070070008208de00d4
:100ff00084817100f4ff2700048262008481710003
:1010000004002800848262006102600005f0a600ee
:101010000000060004827100070032000000e800b2
:10102000e0804800000006000002be006000b8003a
:10103000efff37006000b80000000600889fbe0088
:101040000004eb006138e10016003a000100e00006
:1010500008003a00c800de004800dd0088002000db
:101060000100e00003003a00c800de004800dd0097
:10107000680444008184cf00e984540006003400f1
:101080008908dd00f08314008703de00878070008c
:101090000900dd0009044400610214004f04be0091
:1010a000000006000300e00008003a00c811de005e
:1010b0004811dd00880020000300e00003003a0032
:1010c000c811de004811dd00680444008384cf00ad
:1010d000e9845400060034008919dd00f08314000f
:1010e0008713de00878171000911dd0009044400c7
:1010f000e1021400e9ff37002700200001f0a700fb
:1011000017002000470bde00f60fb200040032008b
:101110000643e8000a0032004702b3000000060060
:1011200001037800f607b2000603700002003a00df
:101130000703b300000006008702b30000000600aa
:1011400001037800f607b2000603700002003200c7
:101150000770a000000006000760a0000000060065
:101160000478a300040032000578a30003003200d5
:101170000168a30001003a000200be000160a00067
:1011800000000600881f7800030478000300e000d8
:1011900007003d0060001000e080180060011900a9
:1011a000e081190002003b0001f02d000300370030
:1011b0000400070008f0a70001f0a0004f04780029
:1011c00000000600889fbe008a9fbe00008270005b
:1011d0000402710004827100260032000004be0087
:1011e0000200be006011b8006b09200095022000cb
:1011f0000182cf000a0039000541b1000082cf0012
:10120000070039000541b1000982cf000400390010
:101210000541b1000882cf00010039000541b1004d
:1012200005425200120032000a003b008281710028
:10123000610164008100d1000080d3008984d30063
:101240000884d3008b05e8000442e800f7ff3a0069
:10125000070037000804440089844c00000048005f
:10126000818048008b05e9000442e900f9ff3a005b
:10127000030007004f05be004f04be00000006003b
:1012800081002000618055000b003d000b00200014
:1012900061fe2f000100e1001d0034008281710019
:1012a000610164008904d1000884d3000000e800d3
:1012b000faff3a0071002000610064000300700032
:1012c000020060000900320061044400e0844c0028
:1012d0000988a500050032008b05e8006808e100d8
:1012e00002003a008904d1000884d300f20f2000e4
:1012f0000258e10005003d00c75ddd00f907b200be
:101300008980750008007800000006000bf82700af
:101310008b00780000000500889fbe008a9fbe00f9
:10132000800478000200e0005a003200014078009a
:10133000814c780082814400f1f99f00e20f510056
:101340005400360091449800a1449800e1f99f00b0
:10135000d1f99f00e60f51004e003600b1449800cd
:10136000c1f99f00e80f51004a0036000905ea0064
:10137000630565000a8444000a055100c1ff2f007f
:10138000010565000080fb008000eb0012102000ca
:101390001310200072050700008cbe000a014400f3
:1013a00060b99f0071b99f00e80f55003900360001
:1013b00020049800310498004004980051049800db
:1013c00020b99f0031b99f0040b99f0051b99f00db
:1013d000f80f55002f003600600498007104980043
:1013e000000c9800110c9800200c9800310c98000b
:1013f000400c9800510c980020b19f0031b19f0023
:1014000040b19f0051b19f0060b19f0071b19f003a
:1014100000b99f0011b99f00640164007801410088
:1014200002044400020555006011b8000203be002a
:101430000002be000403be006022b800000072007b
:101440008180720002017300838173000f003700f6
:1014500008027800009abe00029abe00009abe0000
:101460000292be00000c9800110c9800220c98000b
:10147000330c9800400c9800510c9800620c9800b6
:10148000730c98000a02b1000802b000ff0f55006b
:10149000efff3e00090078004f05be004f04be007c
:1014a000000006000000fa00cfb8970068815700de
:1014b000df0107000080fa000000060004000700ba
:1014c0005c0007000c010700340107008e003700a4
:1014d000ec874700889fbe008a9fbe008c9fbe009d
:1014e0008e1f78000006780001047800180790002d
:1014f0002805900098067800cdb79f00b8059000a9
:101500003202be002203be000400be000601be007f
:101510004f18de006011b8008000eb00d0b79f00cc
:10152000e1b79f00f2b79f0083bf9f00800478005f
:101530000900e000060032006000b8006011b80049
:101540000402500085825800060359008783590021
:101550000e00e000020035000d10a100cdb79f0085
:101560000900e00005003a004fb097000028a300f2
:1015700002003a000038a300020032008a00e900ad
:10158000010037008a007800f8815700a20020008f
:1015900008007800860007000900e00003003a0018
:1015a000cfb097000128a300080032000000e90036
:1015b00000814500b1c2b3000900e0000100320023
:1015c000d1c2b30001497800050037000138a300fb
:1015d000030032000000e90001c2b3008175780009
:1015e000480190000201e90000015100808045009f
:1015f0004fb297008a0178000c007800a401070020
:101600009c0090000188a300040032009800900024
:10161000810f500001003d00010078004f07780065
:101620004f06be004f05be004f04be00cf00b10004
:10163000000006000200fa00889fbe008a9fbe00dc
:10164000000578000104780002007800180190007d
:10165000a805900098007800b1bf9f00b8049000e2
:101660000200e000020035000110a100b1bf9f00a0
:10167000ea815700820020008b0078003002be0013
:101680002003be0008007800490007003fb997001a
:10169000f0006100030032000000e90001c3b30064
:1016a000817478003fb99700e800610003003200c0
:1016b0000000e90001c2b300817478004801900085
:1016c0000201e90000015100808044003fba970008
:1016d0008b0178000a0078006d0107009a009000e5
:1016e0000188a3000400320098009000810f500090
:1016f00001003d00010078004f05be004f04be0010
:101700000080fa0000000600ea874700889fbe00bc
:101710008a9fbe008e1f78000004780003007800c6
:101720007287570084e2260055c72600049fbe003a
:10173000c3962200030f78006c875700004feb0020
:1017400011059000a1049000910578000200e000ce
:10175000020032000207780001003700728757004c
:101760000000e00002003a000e00780022030700ab
:101770000a00e000030035008a0f50000100360027
:101780000a0078000b0278008901780000017800d7
:101790008e007800080078003d0107004f077800b0
:1017a0004f05be004f04be00af00b10000000600b0
:1017b000f4874700889fbe008a9fbe008c9fbe00b2
:1017c0008e1f78000605be000404be0081bf9f0086
:1017d00082b79f00f3b79f00b0009000e1b79f0071
:1017e0001301780092b79f00900690004006900089
:1017f0000c06e9000d00e00001003d001d00200086
:10180000efb197000c8041000048eb001e00200063
:101810001f0037000c06e9000fb09700cf80de00f4
:101820006109b900a0b79f00b1b79f00c2b79f0080
:10183000d3b79f000203be000002be000800be0036
:101840000a01be00f504070000077800efb097001a
:101850000c80400003c3b300034847008d06e90035
:101860000fb897000000e90080bf9f002fb29700db
:10187000bfb297004fb39700dfb397000800be00d8
:101880000a01be00de0407000205be000004be001f
:101890000c00e0000d003200e00f5400e08f5c000f
:1018a000e00f5d00e08f5d00daff3a000d00e00020
:1018b000d8ff3c008fb897000100e000030034001f
:1018c0001fb197000218a300d2ff3a000e00e000fb
:1018d00002003a00ffb197001340a1000c0078000d
:1018e0004f0778004f06be004f05be004f04be00f4
:1018f0004f01b100000006000200fa00889fbe0000
:101900008a9fbe00800478000104780002007800fd
:10191000180190002805900098007800b1bf9f0042
:10192000b80590000200e000020035000110a1009f
:10193000b1bf9f00ea815700a20020008a00780012
:101940003002be002003be000800780098ff0700a8
:10195000480190000201e90000015100808045002b
:101960003fba97008a01780009007800c800070094
:10197000990090000188a3000400320098009000b4
:10198000810f500001003d00010078004f05be00ae
:101990004f04be000080fa0000000600fa874700ee
:1019a000889fbe008a9fbe008c9fbe008e1f78005d
:1019b0008004780001047800820578001801900006
:1019c0002805900018077800b80090000200e00099
:1019d000020035000e10a1000100370012002000a7
:1019e00070006700e0b79f00090032003b02be00b4
:1019f0002b03be00e00f5200e08f5a00e00f5b00a7
:101a0000e08f5b00020032008a86e90001003700a7
:101a10008a067800e8026700f5b79f0001003200ef
:101a20008d06e9003b02be002b03be00e4af9f0021
:101a3000f5af9f0086b79f0097b79f0048069000bc
:101a40000c06e9000c8040000048eb00efb2970064
:101a50007fb297008903780081047800d8af9f0097
:101a6000020478008bbf9f008a0578000345780048
:101a70002a0037000c06e9006fab97006f00630087
:101a8000e90f500002003c000003b00001003700e5
:101a90007005b0000a03fb001604b100f90f5300f3
:101aa0000c003e00000378000650a0001606b100ae
:101ab000f90f530007003e00b4b79f00a5b79f0081
:101ac000c7b79f00ce020700cfb39700afb2970011
:101ad0003fb2970080747e000804e9008d06e9009b
:101ae0006fa89700ffa897000fb197009fb19700cc
:101af000460020008301d1000281d3008180d30001
:101b00000080d3000603e900faff3a00e0af9f002f
:101b1000f1af9f0082b79f0093b79f00e10f56007f
:101b20000f0036006fa89700ffa897000fb197002d
:101b30009fb19700e00f5000e08f5800e00f590070
:101b4000e08f5900cbff3a000800e000c9ff3c00dd
:101b50000d00e000020034000e18a300c5ff3a009b
:101b600089007800f4b79f00870478005fac970085
:101b70008a4178000b0578008fbd97000500e000d2
:101b8000100032003b02be002b03be00e4af9f00fa
:101b9000f5af9f0086b79f0097b79f00e00f5200f8
:101ba000e08f5a00e00f5b00e08f5b000500320021
:101bb0000c06e90083707e000c06e90000c3b30048
:101bc00080707e00ffb297000500e0000300320045
:101bd0000c06e90000c2b30080707e00480190004e
:101be0000201e9000c0151008c8040000e027800d7
:101bf0008a0178000900780025000700990090000c
:101c00000188a3000400320098009000810f50006a
:101c100001003d00010078004f0778004f06be002c
:101c20004f05be004f04be00af01b100000006002a
:101c30008201780001017800f1ff270006023700d9
:101c4000889fbe008a1f78008004780049009000b9
:101c500002047800800f5400010036000004780070
:101c6000080178006a8544001a007800db0107004b
:101c70001a004400000d7800e8844400990c140018
:101c80000048eb004f0578004f04be00000006003e
:101c9000f2874700889fbe008a9fbe008c9fbe00cf
:101ca0008e1f780080047800010578000204780017
:101cb000830578006107620002003a008b0f540030
:101cc00008003900080178008a00780009007800cf
:101cd000dbff07008b0f54000200390088057800f5
:101ce0001e003700088655000c017800f00f5600e2
:101cf0000100360002012000010220007e80570012
:101d000085fd07008c0678000500370002012000e1
:101d1000fe80570009007800c9ff0700f0865600d2
:101d2000ef8f5600f9ff3e004461de0000ff2f00f8
:101d30000091b90002014600fe80570009007800ba
:101d4000bfff07000e00e00004003a000801780021
:101d50008a00780009007800b9ff07000b007800be
:101d60004f0778004f06be004f05be004f04be006f
:101d70002f01b10000000600000005000000050072
:101d800000000500000178000040eb008080fb00af
:101d9000818040002386200063c278000404e000b4
:101da00003003a003086200060c078000000060082
:101db00092017800934f520004003a0030862000d0
:101dc00060c078000309e800010037000040e80027
:101dd000ea4f5000edff360000000600f68747008e
:101de000889fbe008a9fbe008c9fbe008e1f780019
:101df00080047800010478008305780004067800e8
:101e00000000eb00c0b79f008080eb00d1b79f00bf
:101e1000e0b79f00f2b79f000008200080bf9f003e
:101e200098007800010078000005eb000100370001
:101e30000a05e800304178000204e00003003200a7
:101e400053c2b300834f5100f9ff3a000a00e0008b
:101e5000040032000a0178000900780078ff0700ca
:101e6000180c45001807780050c2b3009e4f1000b0
:101e700033013a000e07e8000e0c7800100037001e
:101e8000cfb097000100a0000b003700cfb0970043
:101e90000110a00008003700cfb097000120a0007b
:101ea00005003700cfb097000130a00002003700d6
:101eb000cfb097000140a000c1b79f00000ce80020
:101ec0001800780090407800b2c2b30082cf500072
:101ed000f1ff320007003c0002c2b30082cf500085
:101ee000f0ff320032c2b30082cf500007003a0048
:101ef000efff3700d2c2b30082cf5000e0ff3200c4
:101f000002c3b30082cf5000e0ff3200a2c2b30090
:101f100082cf50000d003a00000ce8001c80e90060
:101f2000000e780010007800e0b79f000000e0008d
:101f30000f003d00cfb097000100a200c1b79f0085
:101f40000000ea00e0b79f00090037007f010700aa
:101f5000e0b79f0001003700000ce800180078008f
:101f60009000fb000103b100e98f5000faff36003a
:101f70004fb097000008a300020032000010a1003b
:101f8000c0b79f0018007800e1c2b30090cf1000e6
:101f900016003a008000eb00d1b79f000000e80077
:101fa000000c7800a1c2b30090cf100006003a00e8
:101fb000000ce8001c80e900000e7800100078009a
:101fc000d0b79f000900370060010700d0b79f001d
:101fd00001003700000ce800180078009000fb00ba
:101fe0000103b100e98f5000faff360008007800c5
:101ff00064ff070080467800180078001000fb009e
:102000007801070091062000810f5000380032004f
:1020100012003c0041062000810f500034003200c5
:102020000a003c0011062000810f50002000320001
:1020300031062000810f50009a003200510220002a
:10204000810f5000ae003a00a70037007106200053
:10205000810f5000aa003c008200370001072000d9
:10206000810f50005c00320007003c00e1062000b8
:10207000810f500074003200f1062000810f5000e3
:102080009f003a003900370051072000810f5000af
:102090002700320081072000810f500042003200eb
:1020a00031072000810f500095003a00850037006d
:1020b0008d80fb000c01780000fe2f000f00400017
:1020c000560107000000e0009c0032001800780074
:1020d000000ce8009041780002fe2f000f01410043
:1020e000f88057000900780024ff07000e00370031
:1020f0008d80fb008c0178001200200000fe2f0074
:102100000f004000640107000000e0008b00320077
:10211000180ce80002fe2f000f014100f880570064
:1021200009007800eafc070000054500840037003c
:102130008d80fb008c0178000001eb0000fe2f0079
:102140000f004000540107000000e0007b00320057
:10215000180ce80002fe2f000f014100f880570024
:1021600009007800e4fd0700efff37008d80fb00d9
:102170008c0178000001eb0000fe2f000f004000f2
:10218000450107000000e0006c003200180ce80078
:1021900002fe2f000f014100f8805700090078006f
:1021a00024fd0700e0ff37008d80fb008c017800e4
:1021b0000001eb0000fe2f000f0040003601070079
:1021c0000000e0005d00320018007800000ce8001c
:1021d00090417800160037008c0178000001eb0078
:1021e000010f200000fe2f000f0040002a01070011
:1021f0000000e00051003200180ce8000fb097001a
:102200009fb097002fb19700bfb19700e00f50002b
:10221000e08f5800e00f5900e08f590003003a00aa
:102220008001eb00c28520004000370083c7b30067
:1022300002fe2f000f014100f880570009007800ce
:10224000d6fd0700b8ff37000b0145008d80fb006d
:102250008c01780000fe2f000f004000670107008e
:10226000360037008d80fb000c01780000fe2f0047
:102270000f004000e90007000000e0002f003200de
:1022800018007800000ce8009041780002fe2f0052
:102290000f014100f880570009007800b7fe0700e1
:1022a000a1ff370000c8b30080cf560023003a00da
:1022b000180ce8001c80e900000e7800104078003f
:1022c0000d00370000c8b30080cf56001b003a0055
:1022d000180ce8001c80e900000e78008001eb007b
:1022e000100178001100370001c8b30081cf5600fb
:1022f00012003a00180ce800e0df9f0008003700e9
:1023000050c2b300e0df9f000e0c78000000eb002d
:10231000c0b79f00e0b79f008080eb00d1b79f005f
:1023200013002000e2fd2f000f014100f88057004c
:1023300009007800f4fc07007bff3700180ce80068
:102340000a0078004f0778004f06be004f05be0018
:102350004f04be006f01b100000006008200fa00c9
:10236000889fbe008a1f78000005780082047800ec
:10237000c13f9f000004eb00100037000902780005
:1023800088017800a2f72f000f01410081f72f008c
:102390008f8040000a00780090fe0700080040008f
:1023a000880f500004003d00b00420001044880055
:1023b0000084eb0004003700000478004f389700d9
:1023c0001004e000edff3a00080078004f057800a7
:1023d0004f04be000080fa00000006008001780073
:1023e00002003700b15978000201e9000200e00064
:1023f000fcff3a000000060080007800040037006f
:102400003104e00002003a00000051000000060024
:10241000010178000108a300f9ff3a00810178006a
:1024200031017800f4ef2f00020242000281ea003d
:10243000020162000408280004016100f7ff320075
:1024400083007800010178003104e000fdff3a00cc
:102450000000510000000600f28747008e1f780040
:1024600002027800030178000000e0000200320060
:102470000007780001003700728757008002eb00e8
:102480000100e000010032008102e9007080570085
:10249000060009000018eb007280570000a8eb004e
:1024a0002310200093bf9f00aebf9f00b1bf9f00cd
:1024b000c5bf9f000100e00004003d00b004200003
:1024c000104488000080eb0005003700004feb004f
:1024d000eebf9f00debf9f0084007800030007006e
:1024e0004f0778002f01b100000006000200fa003b
:1024f000881f780000047800e2bf9f0064815700c5
:102500000800780095ff0700980090000148a3009c
:10251000010032000080eb004f0478000080fa00d8
:102520000000060080007800100020000202200059
:10253000828f500004003200e9805000e48f500088
:10254000010036000000eb0000000600889fbe007e
:102550008a1f7800800478000904780088047800d5
:10256000394578000a00fb00eeff07000000e0009c
:10257000f9ff3a00b0c2b300804f550005003200a9
:10258000d0c2b3008000eb00804f550005003a0038
:10259000020037008000eb0001003700110020002e
:1025a0000804e8000000eb00030037006a02b900ed
:1025b000020052000003b0003801fb0003fd2f00b1
:1025c00082814100e98f5100f8ff36000100e000f0
:1025d00001003a000000ea004f0578004f04be00f9
:1025e00000000600f1fb2f0080804000f98f5000b2
:1025f00001003e000050a00000000600f9ff370077
:10260000f1f92f0080804000f98f500001003e005a
:10261000f005b20000000600f9ff3700881f7800bf
:102620000004780000082000808f5000170035005b
:1026300010082000808f50000b003400300820006c
:10264000808f500011003a0092007800688050009e
:10265000000978003002be002003be00049cbe00ca
:102660000694be0007003700920278006480520092
:10267000000978001000be009a000700009cbe0010
:102680000294be0010002000010037000000eb00a3
:102690004f0478000000060084082000848f50005a
:1026a0001d0032000d003c0014082000848f5000f3
:1026b0002700320002003c0004082000040037001c
:1026c00024082000848f50002a0032004408200093
:1026d000848f500048003a003b003700040a200075
:1026e000848f50002c00320004003c0004092000bc
:1026f000848f500040003a002d003700020c20006b
:10270000828f50001e003200020f2000828f500086
:1027100039003a00300037009380e9000200e00001
:1027200005003200810978001102fb00cfa2de0013
:10273000612bb9002d003700810978001142780023
:102740000482fb008002eb006033b80027003700f2
:1027500013027800e40052000200e0000a00320098
:10276000810978001102be004fabde0086037800bd
:102770001e00370093027800e88052000e003700f8
:1027800093027800e4805200810978001102be00b3
:102790006033b800150037009380e90081097800a4
:1027a00011027800cfa2de00612bb9000f003700c4
:1027b00013037800e8005300810978003102be005d
:1027c0002103be00090037009380e9000200e00009
:1027d00002003200f1ff37009380e90081097800a0
:1027e000110278008002eb006033b8000498be004c
:1027f0000690be00100005000000050044082000ff
:10280000848f5000270032000a003c00140820008a
:10281000848f50001c00320024082000848f500058
:102820002600320004082000848f50002c003a005b
:102830001c00370004092000848f50001f00320064
:1028400004003c0084082000848f500024003a00db
:1028500007003700040a2000848f50001100320066
:10286000040c2000848f50001d003a000600370041
:102870009380e900810978009100780001087800d0
:1028800082487800150037009380e90081097800bc
:102890009100780001087800cf91de008288be00a8
:1028a0000e0037009380e9008109780091007800dc
:1028b0000108780082087800080037009380e9005a
:1028c0008109780091007800010878006112b90050
:1028d000612bb9008498be008690be0010000500f0
:1028e000000005008103780021f807000001be0008
:1028f0006000b8000478a30013003a006220e100f1
:1029000015003e000d0039008301d1000281d30083
:102910008180d3008301d1000281d3008180d30064
:102920008301d1000281d3008180d3000538b0003b
:10293000c42add00f300b2008381720007f0a70013
:1029400003f0a0000000060083ff27000200200023
:102950006110b900f9ff370003ff2700f7ff3700c8
:10296000020ab900001bb9000200b8008100420051
:102970008100430000000600889fbe008a9fbe00c1
:1029800030044200b0844a0030054b0090854b0073
:102990006000b1000898be000a90be000440e1004b
:1029a00005c8e10006d0e10007d8e10002003100cf
:1029b000680040001008e8004f05be004f04be004c
:1029c00000000600889fbe008a9fbe003004be0043
:1029d0002005be000418540005985c0006185d0030
:1029e00007985d00110020000440e10005c8e100e7
:1029f00006d0e10007d8e100010039008000eb00bb
:102a0000108810004f05be004f04be0000000600f5
:102a1000f4874700889fbe008a9fbe008c9fbe003f
:102a20008e1f7800d0b79f00e1b79f00f2b79f00dc
:102a300083bf9f000605be000404be00cfae970012
:102a40000000eb00c0b79f00b0b79f00a0b79f0089
:102a500090b79f0080b79f00000678004fb09700a6
:102a6000000140000000e00006003d003c000700bf
:102a70000f074700450007000f004000beff07009a
:102a800005003700360007000f0747003f0007002a
:102a90000f004000cbff07004fb797000e00e0008b
:102aa0000c0035005fb29700efb297007fb397003c
:102ab0008fbb970010002000010020006011b800bb
:102ac000000272008182720002037300838373002c
:102ad0001c0007000c06e80001042000810f5600ce
:102ae000deff3a000e00e00005003d000802be00d7
:102af0000a03be0000fe2f000f0040009eff0700eb
:102b00000d00e00005003a000fb297009fb2970059
:102b10002fb39700bfb397000a0007005fb097007c
:102b2000efb097007fb197008fb997004f077800fb
:102b30004f06be004f05be004f04be004f01b1005e
:102b400000000600010007000000060094b79f0087
:102b5000a5b79f00b6b79f00c7b79f00000006004b
:102b60009fb097004f08de0002017000a2b79f00df
:102b70000fb097004f01de0081804000810071009e
:102b800091b79f000efe2f0000000600de007800c7
:102b90004f09de00000040000000710080b79f0078
:102ba0006fa897004f01de0081804000010f710087
:102bb0000e0007004f3ade000000400004007000e5
:102bc000e0af9f00090007000402420085824a002e
:102bd00006034b0087834b00dcff07000802be00a2
:102be0000a03be0000fe2f00000006001fb297007f
:102bf000afb297003fb39700cfb397000000060035
:102c0000881f780018002000881f780080ff0700c8
:102c10008f87e9004f04780000000600801feb005a
:102c20007bff07008f87e90000000600889fbe0039
:102c30008a9fbe00e00f5000e08f5800e00f59005f
:102c4000e08f59000c003d006044b8006055b800aa
:102c50000000540081805c0002015d0083815d0002
:102c6000180020001500070008003d0018000700ac
:102c70000004eb00050037000004eb000f00070024
:102c800002003d001200070018002000dcff0700d2
:102c90000800e000060032006022b8006033b8008f
:102ca0000000520081805a0002015b0083815b00ba
:102cb0004f05be004f04be0000000600e00f5200aa
:102cc000e08f5a00e00f5b00e08f5b000000060021
:102cd0006044b8006055b8000402540085825c006e
:102ce00006035d0087835d0000000600889fbe002c
:102cf0008a9fbe008c1f7800e00f5000e08f5800c4
:102d0000e00f5900e08f59000d003d006044b8000d
:102d10006055b8000000540081805c0002015d0035
:102d200083815d001c0020000820e10009a8e1006b
:102d30000ab0e1000bb8e1000d003d0008003700cb
:102d40000006eb00e00f5200e08f5a00e00f5b003e
:102d5000e08f5b0006003d006044b8006055b8009d
:102d60000402540085825c0006035d0087835d00d9
:102d7000aaff07000c00e000060032006022b80045
:102d80006033b8000000520081805a0002015b00ed
:102d900083815b004f0678004f05be004f04be00e4
:042da0000000060029
:020000040000fa
:082da40025640000000000009e
:020000040000fa
:102dac000600fa00e4004700800878000000eb0001
:102dbc00000f7800140037008040eb000e80e80014
:102dcc00014878000a0037000000000000000000f5
:102ddc000000000000000000000000000e80e80071
:102dec00104078008040e8000e80e8000148780030
:102dfc000e80e8009040780070ccb30080cf50007b
:102e0c00f1ff36001e0fe800640047001000780048
:102e1c009e007800808f5000e7ff39000080fa0098
:102e2c00000006000400fa008e80e800800878009c
:102e3c00d0012000000f780010408000e10f5000fe
:102e4c0003003a00f00f2000201688000100370024
:102e5c00c422ef000e80e800100078009e0f500096
:102e6c0017003400104080000000e0000c003a0015
:102e7c00700020005701070070002000810107003e
:102e8c007000200053010700700020007d01070036
:102e9c00700020004f01070070002000790107002e
:102eac000e80e800100078009e0f500002003400e5
:102ebc00f00f200020168800100020001040880021
:102ecc000080fa00000006000c00fa00889fbe008b
:102edc0020002000d70407000004e00001003200ad
:102eec000228ef0020002000d20407000004a200fa
:102efc000004e0005700320040002000ce03070021
:102f0c00804088008040800090000700b080200046
:102f1c00104078000080fb000003b100cf80de0081
:102f2c008df607000004be00c08020001040780021
:102f3c000080fb000003b100cf80de0086f60700a6
:102f4c00d2cc2c00c3dc230089f707000001be00a3
:102f5c000800be00a1f607000004be00d0802000cf
:102f6c00104078000080fb000003b100cf80de0031
:102f7c0079f60700a2702d0033c223007cf70700fe
:102f8c000001be000800be0094f60700008fbe00d2
:102f9c000200200003f023001e00be0086f607008e
:102fac0002002000832c240071f7070049f607006b
:102fbc00640147000009780066004700e400470000
:102fcc00911f7800216d2900811f780032f90700cc
:102fdc00e4875700b080200010407800a40207005e
:102fec00c080200010407800a1020700e0c2b300ae
:102ffc009f020700d0802000104078009c02070040
:10300c0000c2b3009a020700660047001040780027
:10301c009702070067004700104078000004e000aa
:10302c000300320067004700104078009002070050
:10303c00c01220005aff07006400470010007800ff
:10304c0078ff0700c4020700208120008040eb00bd
:10305c00014878004f04be000080fa000000060012
:10306c000000fa0004050700100020003d040700d2
:10307c0010002000ab03070093ff0700feff370092
:10308c000000fa0040c5b3007902070090c6b300f7
:10309c0077020700d0c6b3007502070050c6b30014
:1030ac007302070000c2b300710207008080200089
:1030bc00104078000043b0006d02070090802000a3
:1030cc00104078000043b0006902070050802000d7
:1030dc00104078008e000700a0c3b3006402070004
:1030ec0000c2b3006202070080802000104078000c
:1030fc000043b0005e020700908020001040780072
:10310c000043b0005a020700608020001040780095
:10311c007f000700a0c3b3005502070000c2b30034
:10312c005302070080802000104078000043b0005c
:10313c004f02070090802000104078000043b00040
:10314c004b0207000080fa00000006000200fa00a3
:10315c00000f7800b08020008040eb000148780020
:10316c00c08020008040eb0001487800d080200017
:10317c008040eb0001487800e08020008040eb00ac
:10318c000148780045003700501320009e0078005d
:10319c00808f500008003600b0802000104078006e
:1031ac008040e800b080200001487800a1ec2f009e
:1031bc001e8f4000390037001e007800fe0f5000b3
:1031cc0015003600c080200010407800e84f5000f9
:1031dc0006003e00c0802000104078008040e800cf
:1031ec00c08020000148780008003700b080200023
:1031fc00104078008040e800b08020000148780042
:10320c00c08020008040eb00014878001e0178004f
:10321c007f0f5100210037001e007800e20f500094
:10322c0015003600d080200010407800e84f500088
:10323c0006003e00d0802000104078008040e8005e
:10324c00d08020000148780008003700c0802000a2
:10325c00104078008040e800c080200001487800d1
:10326c00d08020008040eb00014878009e00780060
:10327c00638f5000090037001e007800e20f5000e9
:10328c0006003e00e0802000104078008040e800fe
:10329c00e0802000014878001e0fe9001e00780035
:1032ac000000e000b8ff3a00b08020001040780029
:1032bc0002c3b30082404000b08020000148780077
:1032cc00c08020001040780002c3b3008240400050
:1032dc00c080200001487800d08020001040780089
:1032ec0002c3b30082404000d08020000148780027
:1032fc00e08020001040780002c3b3008240400000
:10330c00e0802000014878000080fa0000000600f0
:10331c000200fa00004f7800708020008040eb0023
:10332c0001487800808020008040eb000148780044
:10333c00908020008040eb00014878001e00370090
:10334c0070ccb3009e40780080cf50000500360052
:10335c0081c3b3001ecf40007080200021c0b30099
:10336c000148780030c6b3009e40780080cf5000f2
:10337c0007003600c0c9b3001e4f4000708020000b
:10338c00104078008040e8007080200001487800f0
:10339c001e407800e94f5000070036009e40780030
:1033ac006acf500080802000104078008040e800f8
:1033bc0080802000014878001e407800e94f5000c2
:1033cc00dfff3e00908020001e4878000080fa004d
:1033dc00000006000200fa00000f78001e007800c2
:1033ec00e40f50001a003200e40f500009003e00b8
:1033fc00e10f500010003200e10f50001e003900a8
:10340c00e20f50000e003200e30f50000e003200ad
:10341c001a003700e60f500011003200e60f500082
:10342c000d003900e70f50000f003200e80f50007c
:10343c000f00320011003700c402a8000f00370043
:10344c00c422a8000d003700c442a8000b003700ae
:10345c00c462a80009003700c482a8000700370026
:10346c00c4a2a80005003700c4c2a800030037009e
:10347c00c4e2a80001003700000000000080fa0040
:10348c00000006000200fa00000f78001e00780011
:10349c00e40f50001a003200e40f500009003e0007
:1034ac00e10f500010003200e10f50001e003900f7
:1034bc00e20f50000e003200e30f50000e003200fd
:1034cc001a003700e60f500011003200e60f5000d2
:1034dc000d003900e70f50000f003200e80f5000cc
:1034ec000f00320011003700c402a9000f00370092
:1034fc00c422a9000d003700c442a9000b003700fc
:10350c00c462a90009003700c482a9000700370073
:10351c00c4a2a90005003700c4c2a90003003700eb
:10352c00c4e2a90001003700000000000080fa008e
:10353c00000006000200fa00000f78001e00780060
:10354c00e40f50003a003200e40f500009003e0036
:10355c00e10f500010003200e10f500075003900ef
:10356c00e20f500018003200e30f5000230032002d
:10357c0071003700e60f500047003200e60f500094
:10358c0038003900e70f500050003200e80f5000af
:10359c005b00320068003700201680000040780085
:1035ac00614060000004a200614060000080fb00ec
:1035bc0061006000211680000100a1000100700074
:1035cc00201688005c003700201680000000d10017
:1035dc00614060000004a200614060000080fb00bc
:1035ec006100600000004000211680000110a10065
:1035fc0001007000201688004f0037002016800054
:10360c004200de00614060000004a20061406000e6
:10361c000080fb00610060004200dd00211680008c
:10362c000120a10001007000201688004200370024
:10363c00201680004300de00614060000004a20000
:10364c00614060000080fb00610060004300dd0011
:10365c00211680000130a1000100700020168800a6
:10366c0035003700201680004400de006140600009
:10367c000004a200614060000080fb00610060005b
:10368c004400dd00211680000140a1000100700003
:10369c002016880028003700201680004500de0028
:1036ac00614060000004a200614060000080fb00eb
:1036bc00610060004500dd00211680000150a10072
:1036cc0001007000201688001b00370020168000b7
:1036dc004600de00614060000004a2006140600012
:1036ec000080fb00610060004600dd0021168000b8
:1036fc000160a10001007000201688000e00370048
:10370c00201680004700de00614060000004a2002b
:10371c00614060000080fb00610060004700dd003c
:10372c00211680000170a100010070002016880095
:10373c0001003700000000000080fa0000000600c5
:10374c000200fa00000f78001e007800e40f500011
:10375c002c003200e40f500009003e00e10f500035
:10376c0010003200e10f500051003900e20f500000
:10377c0014003200e30f50001a0032004e003700e4
:10378c00e60f50002f003200e60f500025003900e4
:10379c00e70f500034003200e80f50003b003200bd
:1037ac0045003700201680006100600000f0a70083
:1037bc000000ea000000ea004f00de000040780044
:1037cc003e003700201680006200600000f0a70069
:1037dc000000ea000000ea004f00de000040780024
:1037ec0036003700201680006400600000f0a7004f
:1037fc000000ea000000ea004f00de000040780004
:10380c002e003700201680006800600000f0a70032
:10381c000000ea000000ea004f00de0000407800e3
:10382c0026003700201680007000600000f0a70012
:10383c000000ea000000ea004f00de0000407800c3
:10384c001e0037002116800000022000008060005e
:10385c0000f0a7000000ea000000ea004f00de00c4
:10386c00004078001500370021168000000420006d
:10387c000080600000f0a7000000ea000000ea00f1
:10388c004f00de00004078000c003700211680004d
:10389c00000820000080600000f0a7000000ea0093
:1038ac000000ea004f00de00004078000300370003
:1038bc000040eb00010037000040eb000080fa00f4
:1038cc00000006000200fa00000f78001e007800cd
:1038dc00e40f50001a003200e40f500009003e00c3
:1038ec00e10f500010003200e10f50001e003900b3
:1038fc00e20f50000e003200e30f50000e003200b9
:10390c001a003700e60f500011003200e60f50008d
:10391c000d003900e70f50000f003200e80f500087
:10392c000f00320011003700c002a9000f00370051
:10393c00c022a9000d003700c042a9000b003700bf
:10394c00c062a90009003700c082a9000700370037
:10395c00c0a2a90005003700c0c2a90003003700af
:10396c00c0e2a90001003700000000000080fa004e
:10397c00000006000000fa00f03f20001030880024
:10398c00303828000030880010002000603088009b
:10399c0000e22400ef00070000e22400ed00070025
:1039ac000426ef0080032000403088008020250092
:1039bc00e80007000426ef00c0002000403088001b
:1039cc00803e2000e30007000426ef00600020008a
:1039dc004030880080bb2000de0007005e0007003e
:1039ec0010c0b3000080fa00000006000400fa00ca
:1039fc00000f78000e80e800010878000a003700fc
:103a0c001e007800104078000000fb000000e00071
:103a1c00140032001e007800104078001e0fe800e1
:103a2c0013000700000000000e80e8001000780072
:103a3c0000f0a7000000ea000000ea004f00de00e2
:103a4c00004078008e80e800910078000101e900c8
:103a5c008e80e800820878000004e000e8ff3a005d
:103a6c0001003700000000000080fa000000060092
:103a7c000200fa00004f78001e00fb00ea0f500015
:103a8c0007003200ed0f500003003200e80f500029
:103a9c000a0032000e0037003e0007002c003700f1
:103aac0000c8bf000004e00002003a009e000700be
:103abc00270037009100070025003700470007005a
:103acc0000c2b300eaff07004400070020003700e3
:103adc0010002000203088001e00fb0040308800c1
:103aec00803e20009b00070001c8bf000040e8009a
:103afc0001e8b70001c8bf00f04f500013003a00b6
:103b0c000168ef0000c8bf000004e00008003a00a4
:103b1c000426ef00000c20004030880080bb200001
:103b2c008c00070010c0b30000e8b7000800370095
:103b3c000426ef00000820004030880080bb2000e5
:103b4c00840007000068ef0001003700000000004f
:103b5c000080fa00000006000000fa000426ef00c6
:103b6c00100020004030880080bb20007900070046
:103b7c000426ef00200020004030880080bb20008d
:103b8c00740007000068ef000168ef000080fa0085
:103b9c00000006000000fa0000c8bf000004e000ae
:103bac0006003a000426ef00000820004030880090
:103bbc0080bb200067000700050037000426ef00db
:103bcc00000c20004030880080bb20006100070002
:103bdc000168ef000080fa00000006000200fa0005
:103bec0001c8bf000004e0001a003a0000c8bf0082
:103bfc000004e00008003a000426ef00000c20004e
:103c0c004030880080bb20005200070010c0b30079
:103c1c0000e8b700060037000426ef00000820007b
:103c2c004030880080bb20004a0007000068ef008d
:103c3c000040eb00004f7800020037000f00070037
:103c4c001e4fe8001e407800ee4f5000fbff360080
:103c5c000800370001c8bf000040e90001e8b700c8
:103c6c000426ef000001200040308800803e200038
:103c7c00380007000080fa00000006000000fa007f
:103c8c000426ef004001200040308800803e2000d8
:103c9c003000070001c8bf000040e80001e8b70091
:103cac0001c8bf00f04f500012003a000168ef004d
:103cbc0000c8bf000004e00008003a000426ef0032
:103ccc00000c20004030880080bb20002100070041
:103cdc0010c0b30000e8b700060037000426ef0060
:103cec00000820004030880080bb2000190007002d
:103cfc000068ef000080fa00000006000200fa00e5
:103d0c000040eb00004f780002003700b3ff0700c3
:103d1c001e4fe8001e407800ef4f5000fbff3600ae
:103d2c000080fa00000006000200fa000040eb00e0
:103d3c00004f780002003700d0ff07001e4fe8004c
:103d4c001e407800ef4f5000fbff36000080fa0059
:103d5c00000006000200fa00000f78000100370096
:103d6c001e0fe9001e0078000000e000fcff3a0086
:103d7c000080fa00000006000200fa00004f7800f4
:103d8c001e4078000004e000060032000426ef001c
:103d9c00f00020004030880080bb2000edff0700c1
:103dac00050037000426ef00c000200040308800da
:103dbc0080bb2000e7ff07000080fa00000006002f
:103dcc000400fa008e80e800800878000e80e8007d
:103ddc0010007800e40f500004003200e50f500092
:103dec000400320000c0eb0011003700000000009e
:103dfc0001003700000000000e80e8001000780081
:103e0c000d000700d1cc2c000100b8004308de00e7
:103e1c00004f780040c6b3009e40780080cf500021
:103e2c000200360040c6b300004f78001e407800f8
:103e3c000080fa00000006000400fa008e80e80002
:103e4c00800878000e80e80010007800e40f500025
:103e5c0004003200e50f5000040032000080eb003b
:103e6c001e003700000000000100370000000000b9
:103e7c000e80e80090007800411988002023a800eb
:103e8c000000eb00000f7800010037001e0fe80067
:103e9c00703e20009e007800808f5000fbff3600a3
:103eac002023a9000000eb00000f78000100370070
:103ebc001e0fe800703e20009e007800808f50009e
:103ecc00fbff36000000000000198000610060005c
:103edc000000e000fcff3200001880000080fa00b7
:103eec00000006000200fa00000f78001e007800a7
:103efc00e40f500005003200e50f500006003a00b8
:103f0c002ca3a90010c0b300040037002c83a90017
:103f1c0010c0b300010037000040eb000080fa0035
:103f2c00000006000200fa00000f78001e00780066
:103f3c000000e0001a003a0011198000f0ff210087
:103f4c00008060001019880000c0eb0024e3b7006b
:103f5c0001198000f0f12f0000806000001988002a
:103f6c0021198000f00f2e000080600000c0a0001e
:103f7c002019880001198000f0cf2f00008060000c
:103f8c00001988001119800030fc2f00008060009f
:103f9c001019880021e3a80010c0b30023003700db
:103fac001e007800e10f50001f003a00011980003c
:103fbc00000e200001007000001988002043a800aa
:103fcc0011198000f0ff210000806000101988009a
:103fdc001119800030fc2f0000806000101988003f
:103fec002343a9002203a900f0c2b30024e3b700c5
:103ffc0021198000f00f2e0080806000003020001e
:10400c00010070002019880095a0a80021e3a800e9
:10401c00500020004019880085a0a9003023ef0033
:10402c0010c0b300010037000040eb000080fa0024
:10403c00000006000400fa008e80e800800878007a
:10404c000040eb00004f7800120037001e80fb0090
:10405c006a00b90080007800808720000080400052
:10406c00900078000e80e80010007800808f5000df
:10407c0007003a001e80fb006a00b900800078003f
:10408c0080872000008040008000eb000108780051
:10409c001e4fe8001e4078000004e000ebff3200e9
:1040ac000080fa00000006000800fa008e80e8008c
:1040bc0080087800640047000288be000040eb00d6
:1040cc00004f7800210037001e80fb006a00b90009
:1040dc00800078008087200000804000100078006d
:1040ec000000e00018003a001e80fb006a00b900d6
:1040fc008000780080872000008040008e80e800df
:10410c00110878001e80fb006a00b900800078005e
:10411c00a087200000804000e400470031187800a0
:10412c00211078001e80fb006a00b9008000780026
:10413c00e0872000008140006000b8000089be00cc
:10414c0010c0b300050037001e4fe8001e40780079
:10415c000004e000dcff32000040eb000080fa00bd
:10416c00000006000200fa00000f78001e00780024
:10417c00e10f500017003200e10f5000030039002e
:10418c00e20f50002500320027003700a20020006b
:10419c008000eb00808720005cf407004105800064
:1041ac0080ff2f00008060000000a0004005880008
:1041bc008500a9000a21ef00007d2000700888000e
:1041cc0000012a00900888009500a80010c0b300d8
:1041dc0016003700a20020008000eb008087200032
:1041ec004af4070021058000f0ff280000806000e1
:1041fc0000e0a000200588008460a9000021ef00e9
:10420c0000002800100888002000280020088800e2
:10421c009460a80010c0b300040037009500a900fa
:10422c0010c0b300010037000040eb000080fa0022
:10423c00000006000200fa00000f78001e00780053
:10424c00e20f500015003200e20f500005003e0056
:10425c000000e0002c003200e10f5000060032009c
:10426c002b003700e30f500015003200e40f500014
:10427c001c00320026003700a1168000000420002c
:10428c000080600000f0a7000000ea000000e900d8
:10429c004f00de00004078001e003700a1168000a1
:1042ac00000820000080600000f0a7000000ea0079
:1042bc000000e9004f00de000040780015003700d8
:1042cc0011168000000820000080600000f0a7009c
:1042dc000000ea000000e9004f00de00004078001a
:1042ec000c003700a1168000000022000080600046
:1042fc0000f0a7000000ea000000e9004f00de001b
:10430c0000407800030037000040eb00010037004c
:10431c000040eb000080fa00000006000200fa00ea
:10432c00000f78001e007800e20f50000e003200e3
:10433c00e20f500005003e000000e00010003200cb
:10434c00e10f5000060032000e003700e30f500062
:10435c0007003200e40f500007003200090037005c
:10436c00d2c2a80007003700d2e2a800050037002f
:10437c00c0e2a80003003700d3a2a8000100370058
:0c438c00000000000080fa0000000600a5
:020000040000fa
:10439800000800000200000000000000780800008b
:1043a8000a00000000000000040800005800000097
:1043b80002000000000000000000000000000000f3
:1043c8000000000000000000457870006c6f72006b
:1043d800657220003136200044656d006f000000d2
:1043e800507265007373200053332000746f2000ef
:1043f800636f6e007400000054696d006520300022
:10440800303a200030303a002030300020000000e0
:1044180020506f0074203d0020302e0030302000e6
:10442800566463002000000000000000020800003d
:1044380002000000000000005c0800001c000000f2
:1044480002000000286e69006c29000068076c00f3
:10445800094c83006a907400a07ac000008068004c
:10446800880084006c82000081000000820800003f
:0c44780002000000000000000000000036
:020000040000fa
:104484000000fa001000200010fd070020002000aa
:104494000efd0700300020000cfd07004000200046
:1044a4000afd07005000200008fd070060002000fe
:1044b40006fd07007000200004fd070080002000b6
:1044c40002fd07001000200096ff070040002000b6
:1044d40094ff07003000200092ff07002000200016
:1044e40090ff07004000200080fe070023fd070026
:1044f400020007000080fa00000006000600fa002f
:1045040020c0b300004f780061c4b3000e00e8007f
:104514000148780071c5b3000e80e80001487800b6
:1045240021742000640047000108780064004700fb
:10453400900178000e00e800104078008e80e800ba
:10454400914078001e4178008049780081497800c4
:0c455400824978000080fa000000060098
:020000040000fa
:020000040002f8
:04aff800bdfa00009e
:020000040000fa
:020000040002f8
:04affc007f3f000093
:00000001FF
